{
  "_format": "hh-sol-artifact-1",
  "contractName": "HeirholdFactory",
  "sourceName": "contracts/HeirholdFactory.sol",
  "abi": [
    {
      "anonymous": false,
      "inputs": [
        {
          "indexed": true,
          "internalType": "address",
          "name": "walletAddress",
          "type": "address"
        },
        {
          "indexed": true,
          "internalType": "address",
          "name": "owner",
          "type": "address"
        }
      ],
      "name": "CreateHeirholdWallet",
      "type": "event"
    },
    {
      "inputs": [
        {
          "internalType": "uint256",
          "name": "claimGracePeriod",
          "type": "uint256"
        },
        {
          "internalType": "uint256",
          "name": "claimDepositFeeAmount",
          "type": "uint256"
        },
        {
          "internalType": "address[]",
          "name": "allowedHeirAdresses",
          "type": "address[]"
        }
      ],
      "name": "createHeirholdWallet",
      "outputs": [],
      "stateMutability": "payable",
      "type": "function"
    }
  ],
  "bytecode": "0x608060405234801561001057600080fd5b50612c63806100206000396000f3fe608060405260043610620000205760003560e01c80634cec47231462000025575b600080fd5b6200004360048036038101906200003d91906200038e565b62000045565b005b600034848484604051620000599062000157565b6200006793929190620004e8565b6040518091039082f090508015801562000085573d6000803e3d6000fd5b5090508073ffffffffffffffffffffffffffffffffffffffff1663f2fde38b336040518263ffffffff1660e01b8152600401620000c3919062000551565b600060405180830381600087803b158015620000de57600080fd5b505af1158015620000f3573d6000803e3d6000fd5b505050503373ffffffffffffffffffffffffffffffffffffffff168173ffffffffffffffffffffffffffffffffffffffff167ff756c4c85d2adb05e4c0fed4cf7cbc01eb5d1fcac7d045270bd66254099a358160405160405180910390a350505050565b6126bf806200056f83390190565b6000604051905090565b600080fd5b600080fd5b6000819050919050565b6200018e8162000179565b81146200019a57600080fd5b50565b600081359050620001ae8162000183565b92915050565b600080fd5b6000601f19601f8301169050919050565b7f4e487b7100000000000000000000000000000000000000000000000000000000600052604160045260246000fd5b6200020482620001b9565b810181811067ffffffffffffffff82111715620002265762000225620001ca565b5b80604052505050565b60006200023b62000165565b9050620002498282620001f9565b919050565b600067ffffffffffffffff8211156200026c576200026b620001ca565b5b602082029050602081019050919050565b600080fd5b600073ffffffffffffffffffffffffffffffffffffffff82169050919050565b6000620002af8262000282565b9050919050565b620002c181620002a2565b8114620002cd57600080fd5b50565b600081359050620002e181620002b6565b92915050565b6000620002fe620002f8846200024e565b6200022f565b905080838252602082019050602084028301858111156200032457620003236200027d565b5b835b818110156200035157806200033c8882620002d0565b84526020840193505060208101905062000326565b5050509392505050565b600082601f830112620003735762000372620001b4565b5b813562000385848260208601620002e7565b91505092915050565b600080600060608486031215620003aa57620003a96200016f565b5b6000620003ba868287016200019d565b9350506020620003cd868287016200019d565b925050604084013567ffffffffffffffff811115620003f157620003f062000174565b5b620003ff868287016200035b565b9150509250925092565b620004148162000179565b82525050565b600081519050919050565b600082825260208201905092915050565b6000819050602082019050919050565b6200045181620002a2565b82525050565b600062000465838362000446565b60208301905092915050565b6000602082019050919050565b60006200048b826200041a565b62000497818562000425565b9350620004a48362000436565b8060005b83811015620004db578151620004bf888262000457565b9750620004cc8362000471565b925050600181019050620004a8565b5085935050505092915050565b6000606082019050620004ff600083018662000409565b6200050e602083018562000409565b81810360408301526200052281846200047e565b9050949350505050565b6000620005398262000282565b9050919050565b6200054b816200052c565b82525050565b600060208201905062000568600083018462000540565b9291505056fe6080604052604051620026bf380380620026bf833981810160405281019062000029919062000370565b336000806101000a81548173ffffffffffffffffffffffffffffffffffffffff021916908373ffffffffffffffffffffffffffffffffffffffff160217905550826001819055508160028190555080600390805190602001906200008f92919062000099565b50505050620003eb565b82805482825590600052602060002090810192821562000115579160200282015b82811115620001145782518260006101000a81548173ffffffffffffffffffffffffffffffffffffffff021916908373ffffffffffffffffffffffffffffffffffffffff16021790555091602001919060010190620000ba565b5b50905062000124919062000128565b5090565b5b808211156200014357600081600090555060010162000129565b5090565b6000604051905090565b600080fd5b600080fd5b6000819050919050565b62000170816200015b565b81146200017c57600080fd5b50565b600081519050620001908162000165565b92915050565b600080fd5b6000601f19601f8301169050919050565b7f4e487b7100000000000000000000000000000000000000000000000000000000600052604160045260246000fd5b620001e6826200019b565b810181811067ffffffffffffffff82111715620002085762000207620001ac565b5b80604052505050565b60006200021d62000147565b90506200022b8282620001db565b919050565b600067ffffffffffffffff8211156200024e576200024d620001ac565b5b602082029050602081019050919050565b600080fd5b600073ffffffffffffffffffffffffffffffffffffffff82169050919050565b6000620002918262000264565b9050919050565b620002a38162000284565b8114620002af57600080fd5b50565b600081519050620002c38162000298565b92915050565b6000620002e0620002da8462000230565b62000211565b905080838252602082019050602084028301858111156200030657620003056200025f565b5b835b818110156200033357806200031e8882620002b2565b84526020840193505060208101905062000308565b5050509392505050565b600082601f83011262000355576200035462000196565b5b815162000367848260208601620002c9565b91505092915050565b6000806000606084860312156200038c576200038b62000151565b5b60006200039c868287016200017f565b9350506020620003af868287016200017f565b925050604084015167ffffffffffffffff811115620003d357620003d262000156565b5b620003e1868287016200033d565b9150509250925092565b6122c480620003fb6000396000f3fe60806040526004361061010d5760003560e01c8063a06a00ce11610095578063c9e7cc1311610064578063c9e7cc1314610351578063d562abd61461037c578063d74fb827146103a7578063e844d3b3146103d0578063f2fde38b146103fb5761014b565b8063a06a00ce146102a8578063a3539928146102bf578063a888c2cd146102e8578063c52822f8146103265761014b565b806349cab7ef116100dc57806349cab7ef1461020a578063537d3cb31461022157806366c5e7c51461024a5780638da5cb5b14610254578063968b29e01461027f5761014b565b806312065fe0146101505780631f2775151461017b5780631f30ed7a146101b85780632e1a7d4d146101e15761014b565b3661014b577f139aad0d4494631a56e07dc9a5a4b849ac824168cf2f453a5fc2d3b285d53e264760405161014191906116c1565b60405180910390a1005b600080fd5b34801561015c57600080fd5b50610165610424565b60405161017291906116c1565b60405180910390f35b34801561018757600080fd5b506101a2600480360381019061019d919061170d565b61042c565b6040516101af919061177b565b60405180910390f35b3480156101c457600080fd5b506101df60048036038101906101da91906117c2565b61046b565b005b3480156101ed57600080fd5b506102086004803603810190610203919061170d565b610505565b005b34801561021657600080fd5b5061021f610677565b005b34801561022d57600080fd5b506102486004803603810190610243919061170d565b610894565b005b610252610934565b005b34801561026057600080fd5b506102696109d4565b6040516102769190611810565b60405180910390f35b34801561028b57600080fd5b506102a660048036038101906102a1919061170d565b6109f8565b005b3480156102b457600080fd5b506102bd610a98565b005b3480156102cb57600080fd5b506102e660048036038101906102e191906117c2565b610aeb565b005b3480156102f457600080fd5b5061030f600480360381019061030a919061170d565b610d59565b60405161031d92919061182b565b60405180910390f35b34801561033257600080fd5b5061033b610dad565b6040516103489190611950565b60405180910390f35b34801561035d57600080fd5b50610366610e6c565b60405161037391906116c1565b60405180910390f35b34801561038857600080fd5b50610391610e72565b60405161039e9190611a21565b60405180910390f35b3480156103b357600080fd5b506103ce60048036038101906103c991906117c2565b610f00565b005b3480156103dc57600080fd5b506103e561104b565b6040516103f291906116c1565b60405180910390f35b34801561040757600080fd5b50610422600480360381019061041d9190611a6f565b611051565b005b600047905090565b6003818154811061043c57600080fd5b906000526020600020016000915054906101000a900473ffffffffffffffffffffffffffffffffffffffff1681565b60008054906101000a900473ffffffffffffffffffffffffffffffffffffffff1673ffffffffffffffffffffffffffffffffffffffff163373ffffffffffffffffffffffffffffffffffffffff16146104f9576040517f08c379a00000000000000000000000000000000000000000000000000000000081526004016104f090611af9565b60405180910390fd5b61050281611262565b50565b60008054906101000a900473ffffffffffffffffffffffffffffffffffffffff1673ffffffffffffffffffffffffffffffffffffffff163373ffffffffffffffffffffffffffffffffffffffff1614610593576040517f08c379a000000000000000000000000000000000000000000000000000000000815260040161058a90611af9565b60405180910390fd5b804710156105d6576040517f08c379a00000000000000000000000000000000000000000000000000000000081526004016105cd90611b65565b60405180910390fd5b60008054906101000a900473ffffffffffffffffffffffffffffffffffffffff1673ffffffffffffffffffffffffffffffffffffffff166108fc829081150290604051600060405180830381858888f1935050505015801561063c573d6000803e3d6000fd5b507f139aad0d4494631a56e07dc9a5a4b849ac824168cf2f453a5fc2d3b285d53e264760405161066c91906116c1565b60405180910390a150565b6000805b600480549050811015610850573373ffffffffffffffffffffffffffffffffffffffff16600482815481106106b3576106b2611b85565b5b906000526020600020906002020160000160009054906101000a900473ffffffffffffffffffffffffffffffffffffffff1673ffffffffffffffffffffffffffffffffffffffff160361083d576001546004828154811061071757610716611b85565b5b9060005260206000209060020201600101546107339190611be3565b421015610775576040517f08c379a000000000000000000000000000000000000000000000000000000000815260040161076c90611c63565b60405180910390fd5b60019150336000806101000a81548173ffffffffffffffffffffffffffffffffffffffff021916908373ffffffffffffffffffffffffffffffffffffffff160217905550600360006107c79190611600565b600460006107d59190611621565b60008054906101000a900473ffffffffffffffffffffffffffffffffffffffff1673ffffffffffffffffffffffffffffffffffffffff167fcdc5929fe15058078d152b6b83a24365123aab97325a40229cbe180351a53c8760405160405180910390a2610850565b808061084890611c83565b91505061067b565b5080610891576040517f08c379a000000000000000000000000000000000000000000000000000000000815260040161088890611d17565b60405180910390fd5b50565b60008054906101000a900473ffffffffffffffffffffffffffffffffffffffff1673ffffffffffffffffffffffffffffffffffffffff163373ffffffffffffffffffffffffffffffffffffffff1614610922576040517f08c379a000000000000000000000000000000000000000000000000000000000815260040161091990611af9565b60405180910390fd5b80600181905550610931611431565b50565b61093d3361149e565b61097c576040517f08c379a000000000000000000000000000000000000000000000000000000000815260040161097390611d83565b60405180910390fd5b60025434146109c0576040517f08c379a00000000000000000000000000000000000000000000000000000000081526004016109b790611e15565b60405180910390fd5b6109c933611262565b6109d23361154c565b565b60008054906101000a900473ffffffffffffffffffffffffffffffffffffffff1681565b60008054906101000a900473ffffffffffffffffffffffffffffffffffffffff1673ffffffffffffffffffffffffffffffffffffffff163373ffffffffffffffffffffffffffffffffffffffff1614610a86576040517f08c379a0000000000000000000000000000000000000000000000000000000008152600401610a7d90611af9565b60405180910390fd5b80600281905550610a95611431565b50565b610aa13361149e565b610ae0576040517f08c379a0000000000000000000000000000000000000000000000000000000008152600401610ad790611d83565b60405180910390fd5b610ae933611262565b565b60008054906101000a900473ffffffffffffffffffffffffffffffffffffffff1673ffffffffffffffffffffffffffffffffffffffff163373ffffffffffffffffffffffffffffffffffffffff1614610b79576040517f08c379a0000000000000000000000000000000000000000000000000000000008152600401610b7090611af9565b60405180910390fd5b610b828161149e565b610bc1576040517f08c379a0000000000000000000000000000000000000000000000000000000008152600401610bb890611d83565b60405180910390fd5b60005b600380549050811015610d55578173ffffffffffffffffffffffffffffffffffffffff1660038281548110610bfc57610bfb611b85565b5b9060005260206000200160009054906101000a900473ffffffffffffffffffffffffffffffffffffffff1673ffffffffffffffffffffffffffffffffffffffff1603610d425760036001600380549050610c569190611e35565b81548110610c6757610c66611b85565b5b9060005260206000200160009054906101000a900473ffffffffffffffffffffffffffffffffffffffff1660038281548110610ca657610ca5611b85565b5b9060005260206000200160006101000a81548173ffffffffffffffffffffffffffffffffffffffff021916908373ffffffffffffffffffffffffffffffffffffffff1602179055506003805480610d0057610cff611e69565b5b6001900381819060005260206000200160006101000a81549073ffffffffffffffffffffffffffffffffffffffff02191690559055610d3d611431565b610d55565b8080610d4d90611c83565b915050610bc4565b5050565b60048181548110610d6957600080fd5b90600052602060002090600202016000915090508060000160009054906101000a900473ffffffffffffffffffffffffffffffffffffffff16908060010154905082565b60606004805480602002602001604051908101604052809291908181526020016000905b82821015610e6357838290600052602060002090600202016040518060400160405290816000820160009054906101000a900473ffffffffffffffffffffffffffffffffffffffff1673ffffffffffffffffffffffffffffffffffffffff1673ffffffffffffffffffffffffffffffffffffffff16815260200160018201548152505081526020019060010190610dd1565b50505050905090565b60015481565b60606003805480602002602001604051908101604052809291908181526020018280548015610ef657602002820191906000526020600020905b8160009054906101000a900473ffffffffffffffffffffffffffffffffffffffff1673ffffffffffffffffffffffffffffffffffffffff1681526020019060010190808311610eac575b5050505050905090565b60008054906101000a900473ffffffffffffffffffffffffffffffffffffffff1673ffffffffffffffffffffffffffffffffffffffff163373ffffffffffffffffffffffffffffffffffffffff1614610f8e576040517f08c379a0000000000000000000000000000000000000000000000000000000008152600401610f8590611af9565b60405180910390fd5b60001515610f9b8261149e565b151514610fdd576040517f08c379a0000000000000000000000000000000000000000000000000000000008152600401610fd490611ee4565b60405180910390fd5b6003819080600181540180825580915050600190039060005260206000200160009091909190916101000a81548173ffffffffffffffffffffffffffffffffffffffff021916908373ffffffffffffffffffffffffffffffffffffffff160217905550611048611431565b50565b60025481565b60008054906101000a900473ffffffffffffffffffffffffffffffffffffffff1673ffffffffffffffffffffffffffffffffffffffff163373ffffffffffffffffffffffffffffffffffffffff16146110df576040517f08c379a00000000000000000000000000000000000000000000000000000000081526004016110d690611af9565b60405180910390fd5b600073ffffffffffffffffffffffffffffffffffffffff168173ffffffffffffffffffffffffffffffffffffffff160361114e576040517f08c379a000000000000000000000000000000000000000000000000000000000815260040161114590611f50565b60405180910390fd5b60008054906101000a900473ffffffffffffffffffffffffffffffffffffffff1673ffffffffffffffffffffffffffffffffffffffff168173ffffffffffffffffffffffffffffffffffffffff16036111dc576040517f08c379a00000000000000000000000000000000000000000000000000000000081526004016111d390611fbc565b60405180910390fd5b806000806101000a81548173ffffffffffffffffffffffffffffffffffffffff021916908373ffffffffffffffffffffffffffffffffffffffff1602179055508073ffffffffffffffffffffffffffffffffffffffff167f1388fdf4f7aa7f53fa74b9214ae9d901a4ec6b4af2904752a5313f0823a8d69560405160405180910390a250565b60005b60048054905081101561142d578173ffffffffffffffffffffffffffffffffffffffff166004828154811061129d5761129c611b85565b5b906000526020600020906002020160000160009054906101000a900473ffffffffffffffffffffffffffffffffffffffff1673ffffffffffffffffffffffffffffffffffffffff160361141a57600460016004805490506112fe9190611e35565b8154811061130f5761130e611b85565b5b90600052602060002090600202016004828154811061133157611330611b85565b5b90600052602060002090600202016000820160009054906101000a900473ffffffffffffffffffffffffffffffffffffffff168160000160006101000a81548173ffffffffffffffffffffffffffffffffffffffff021916908373ffffffffffffffffffffffffffffffffffffffff1602179055506001820154816001015590505060048054806113c5576113c4611e69565b5b6001900381819060005260206000209060020201600080820160006101000a81549073ffffffffffffffffffffffffffffffffffffffff0219169055600182016000905550509055611415611431565b61142d565b808061142590611c83565b915050611265565b5050565b60046040516114409190612187565b60405180910390206003604051611457919061224e565b60405180910390207fb08c7a4f569efeb9418cbd3e88e43daecfbde3eb90fa4998e9a9c52ca2ecb4d1600154600254604051611494929190612265565b60405180910390a3565b600080600090505b600380549050811015611541578273ffffffffffffffffffffffffffffffffffffffff16600382815481106114de576114dd611b85565b5b9060005260206000200160009054906101000a900473ffffffffffffffffffffffffffffffffffffffff1673ffffffffffffffffffffffffffffffffffffffff160361152e576001915050611547565b808061153990611c83565b9150506114a6565b50600090505b919050565b600460405180604001604052808373ffffffffffffffffffffffffffffffffffffffff16815260200142815250908060018154018082558091505060019003906000526020600020906002020160009091909190915060008201518160000160006101000a81548173ffffffffffffffffffffffffffffffffffffffff021916908373ffffffffffffffffffffffffffffffffffffffff1602179055506020820151816001015550506115fd611431565b50565b508054600082559060005260206000209081019061161e9190611645565b50565b50805460008255600202906000526020600020908101906116429190611662565b50565b5b8082111561165e576000816000905550600101611646565b5090565b5b808211156116a457600080820160006101000a81549073ffffffffffffffffffffffffffffffffffffffff0219169055600182016000905550600201611663565b5090565b6000819050919050565b6116bb816116a8565b82525050565b60006020820190506116d660008301846116b2565b92915050565b600080fd5b6116ea816116a8565b81146116f557600080fd5b50565b600081359050611707816116e1565b92915050565b600060208284031215611723576117226116dc565b5b6000611731848285016116f8565b91505092915050565b600073ffffffffffffffffffffffffffffffffffffffff82169050919050565b60006117658261173a565b9050919050565b6117758161175a565b82525050565b6000602082019050611790600083018461176c565b92915050565b61179f8161175a565b81146117aa57600080fd5b50565b6000813590506117bc81611796565b92915050565b6000602082840312156117d8576117d76116dc565b5b60006117e6848285016117ad565b91505092915050565b60006117fa8261173a565b9050919050565b61180a816117ef565b82525050565b60006020820190506118256000830184611801565b92915050565b6000604082019050611840600083018561176c565b61184d60208301846116b2565b9392505050565b600081519050919050565b600082825260208201905092915050565b6000819050602082019050919050565b6118898161175a565b82525050565b611898816116a8565b82525050565b6040820160008201516118b46000850182611880565b5060208201516118c7602085018261188f565b50505050565b60006118d9838361189e565b60408301905092915050565b6000602082019050919050565b60006118fd82611854565b611907818561185f565b935061191283611870565b8060005b8381101561194357815161192a88826118cd565b9750611935836118e5565b925050600181019050611916565b5085935050505092915050565b6000602082019050818103600083015261196a81846118f2565b905092915050565b600081519050919050565b600082825260208201905092915050565b6000819050602082019050919050565b60006119aa8383611880565b60208301905092915050565b6000602082019050919050565b60006119ce82611972565b6119d8818561197d565b93506119e38361198e565b8060005b83811015611a145781516119fb888261199e565b9750611a06836119b6565b9250506001810190506119e7565b5085935050505092915050565b60006020820190508181036000830152611a3b81846119c3565b905092915050565b611a4c816117ef565b8114611a5757600080fd5b50565b600081359050611a6981611a43565b92915050565b600060208284031215611a8557611a846116dc565b5b6000611a9384828501611a5a565b91505092915050565b600082825260208201905092915050565b7f4e6f74206f776e65720000000000000000000000000000000000000000000000600082015250565b6000611ae3600983611a9c565b9150611aee82611aad565b602082019050919050565b60006020820190508181036000830152611b1281611ad6565b9050919050565b7f496e73756666696369656e742062616c616e6365000000000000000000000000600082015250565b6000611b4f601483611a9c565b9150611b5a82611b19565b602082019050919050565b60006020820190508181036000830152611b7e81611b42565b9050919050565b7f4e487b7100000000000000000000000000000000000000000000000000000000600052603260045260246000fd5b7f4e487b7100000000000000000000000000000000000000000000000000000000600052601160045260246000fd5b6000611bee826116a8565b9150611bf9836116a8565b9250828201905080821115611c1157611c10611bb4565b5b92915050565b7f436c61696d20696e20677261636520706572696f640000000000000000000000600082015250565b6000611c4d601583611a9c565b9150611c5882611c17565b602082019050919050565b60006020820190508181036000830152611c7c81611c40565b9050919050565b6000611c8e826116a8565b91507fffffffffffffffffffffffffffffffffffffffffffffffffffffffffffffffff8203611cc057611cbf611bb4565b5b600182019050919050565b7f4e6f7420696e20636c61696d7300000000000000000000000000000000000000600082015250565b6000611d01600d83611a9c565b9150611d0c82611ccb565b602082019050919050565b60006020820190508181036000830152611d3081611cf4565b9050919050565b7f4e6f7420696e20616c6c6f77656420636c61696d616e74730000000000000000600082015250565b6000611d6d601883611a9c565b9150611d7882611d37565b602082019050919050565b60006020820190508181036000830152611d9c81611d60565b9050919050565b7f496e636f727265637420636c61696d206465706f7369742066656520616d6f7560008201527f6e742073656e7400000000000000000000000000000000000000000000000000602082015250565b6000611dff602783611a9c565b9150611e0a82611da3565b604082019050919050565b60006020820190508181036000830152611e2e81611df2565b9050919050565b6000611e40826116a8565b9150611e4b836116a8565b9250828203905081811115611e6357611e62611bb4565b5b92915050565b7f4e487b7100000000000000000000000000000000000000000000000000000000600052603160045260246000fd5b7f416c726561647920696e20616c6c6f77656420636c61696d616e747300000000600082015250565b6000611ece601c83611a9c565b9150611ed982611e98565b602082019050919050565b60006020820190508181036000830152611efd81611ec1565b9050919050565b7f41646472657373207a65726f0000000000000000000000000000000000000000600082015250565b6000611f3a600c83611a9c565b9150611f4582611f04565b602082019050919050565b60006020820190508181036000830152611f6981611f2d565b9050919050565b7f416c7265616479206f776e657200000000000000000000000000000000000000600082015250565b6000611fa6600d83611a9c565b9150611fb182611f70565b602082019050919050565b60006020820190508181036000830152611fd581611f99565b9050919050565b600081549050919050565b600081905092915050565b60008190508160005260206000209050919050565b60008160001c9050919050565b600073ffffffffffffffffffffffffffffffffffffffff82169050919050565b600061204761204283612007565b612014565b9050919050565b6120578161175a565b82525050565b6000612069838361204e565b60208301905092915050565b6000819050919050565b600061209261208d83612007565b612075565b9050919050565b6120a2816116a8565b82525050565b60006120b48383612099565b60208301905092915050565b6000820160008083015490506120d581612034565b6120df858261205d565b945050600183015490506120f28161207f565b6120fc85826120a8565b94505050505050565b600061211183836120c0565b60408301905092915050565b6000600282019050919050565b600061213582611fdc565b61213f8185611fe7565b935061214a83611ff2565b8060005b8381101561217a57816121618882612105565b975061216c8361211d565b92505060018101905061214e565b5085935050505092915050565b6000612193828461212a565b915081905092915050565b600081549050919050565b600081905092915050565b60008190508160005260206000209050919050565b60006121d58254612034565b9050919050565b6000600182019050919050565b60006121f48261219e565b6121fe81856121a9565b9350612209836121b4565b8060005b838110156122415761221e826121c9565b612228888261205d565b9750612233836121dc565b92505060018101905061220d565b5085935050505092915050565b600061225a82846121e9565b915081905092915050565b600060408201905061227a60008301856116b2565b61228760208301846116b2565b939250505056fea26469706673582212207da4a09b534f69cf928431a2dea96993bd0383c53cde47a5269ff01a386bbed964736f6c63430008130033a264697066735822122029bcbbd056a0e13936a9eaee1919d0321c18bd0cea133914ed04422206bf655f64736f6c63430008130033",
  "linkReferences": {},
  "deployedLinkReferences": {}
}